:100000000C9441090C9488090C9488090C94880973
:100010000C9488090C9488090C9488090C9488091C
:100020000C9488090C9488090C94CE280C94A0296F
:100030000C94CD200C9488090C9488090C948809A0
:100040000C9488090C9488090C9488090C948809EC
:100050000C9488090C9435210C9488090C94880917
:100060000C9488090C9488090C9488090C948809CC
:100070000C9488090C9488090C9488090C948809BC
:100080000C9488090C9488090C9488090C948809AC
:100090000C9488090C9488090C9488090C9488099C
:1000A0000C9488090C9488090C948809260A280A5B
:1000B000330A2A0A2C0A2E0A300A320A350A370A6B
:1000C000390A440A3B0A3D0A3F0A410A430A460AE2
:1000D000ED16ED161F171F1759177717B718B71812
:1000E0008217B718251825188A189318B718B11849
:1000F00032183218321832183218321832183218B0
:10010000321832183218321832183218321832189F
:1001100041184F1856185D186718371937194919BB
:1001200049194019491949194919371937194519F0
:100130004919491945190D2A2F2A222B2F2A222B1A
:10014000742A972A222BEC2AFF2AE000E300E2001F
:1001500051005000E4002C000151E600E100640071
:100160001D001B00060019000500110010003900D9
:1001700004001600070009000A000B000D000E0025
:100180002B0014001A000800150017001C001800AE
:100190000C0035001E001F0020002100220023005B
:1001A0002400250029003A003B003C003D003E00B1
:1001B0003F0040004100000000000000000000007F
:1001C00000004F000000000000000000000052008E
:1001D000E50038004D003700360000000000000048
:1001E0000000310034004E0033000F00000000001A
:1001F0000000280030002F004B0013001200000008
:1002000000004A0000002E002D002A0027002600D2
:10021000000000004C004600450044004800430038
:100220004200010001000100AA00AC000100010031
:100230000100010001000100010001003070337075
:1002400031700100A80032700100010001000100BE
:100250000100010001000100357034703670377004
:10026000387039703A703B700100010001000100E4
:100270000100010001000100010001000070010007
:100280000100010001000100010001000100000067
:1002900000000000000000000000AB0000000000B3
:1002A000000000000000A9000100010001000100A1
:1002B000010000000000000000000100010001003A
:1002C0000100010000000000000001000100010029
:1002D0000100010001000000000001000000010019
:1002E0000100010001000100000000000100010008
:1002F00001000100010001000100010001000100F6
:1003000001000100010001000100010001000100E5
:1003100001000100010001000100010001000100D5
:1003200001000100010001000100010001000100C5
:1003300001000100010001000100010001000100B5
:1003400001000100010001000100010001000100A5
:100350000100010001000100010001000100010095
:10036000010001000100000000000000000000008A
:10037000000001000000000000000000000001007B
:100380000100010001000100010000000000000068
:100390000000010001000100010001000000000058
:1003A0000000010001000100010001000100000047
:1003B0000000010000000100010001000100010037
:1003C0000000000001000100010001000100010027
:1003D0000100010001000100010001000100010015
:1003E0000100010001000100010001000100010005
:1003F00001000100010001000100010001000100F5
:1004000001000100010001000100010001000100E4
:1004100001000100010001000100010001000100D4
:1004200001000100010001000100010001000100C4
:1004300001000100010001000100010001000000B5
:1004400000000000000000000000010000000000AB
:100450000000000000000100010001000100010097
:100460000100000000000000000001000100010088
:100470000100010000000000000001000100010077
:100480000100010001000000000001000000010067
:100490000100010001000100000000000100010056
:1004A0000100010001000100010001000100010044
:1004B0000100010001000100010001000100010034
:1004C0000100010001000100010001000100010024
:1004D0000100010001000100010001000100010014
:1004E0000100010001000100010001000100010004
:1004F00001000100010001000100010001000100F4
:1005000001000100010001000100010001000100E3
:1005100001000100010000000000000000000000D8
:1005200000000100000000000000000000000100C9
:1005300001000100010001000100000000000000B6
:1005400000000100010001000100010000000000A6
:100550000000010001000100010001000100000095
:100560000000010000000100010001000100010085
:100570000000000001000100010001000100010075
:100580000100010001000100010001000100010063
:100590000100010001000100010001000100010053
:1005A0000100010001000100010001000100010043
:1005B0000100010001000100010001000100010033
:1005C0000100010001000100010001000100010023
:1005D0000100010001000100010001000100010013
:1005E0000100010001000100010001000100000004
:1005F00000000000000000000000010000000000FA
:1006000000000000000001000100010001000100E5
:1006100001000000000000000000010001000100D6
:1006200001000100000000000000010001000100C5
:1006300001000100010000000000010000000100B5
:1006400001000100010001000000000001000100A4
:100650000100010001000100010001000100010092
:100660000100010001000100010001000100010082
:100670000100010001000100010001000100010072
:100680000100010001000100010001000100010062
:100690000100010001000100010001000100010052
:1006A0000100010001000100010001000100010042
:1006B0000100010001000100010001000100010032
:1006C0000100010001000000000000000000000027
:1006D0000000010000000000000000000000010018
:1006E0000100010001000100010000000000000005
:1006F00000000100010001000100010000000000F5
:1007000000000100010001000100010001000000E3
:1007100000000100000001000100010001000100D3
:1007200000000000010001000100010001000100C3
:1007300001000100010001000100010001000100B1
:1007400001000100010001000100010001000100A1
:100750000100010001000100010001000100010091
:100760000100010001000100010001000100010081
:100770000100010001000100010001000100010071
:100780000100010001000100010001000100010061
:100790000100010001000100010001000100000052
:1007A0000000000000000000000001000000000048
:1007B0000000000000000100010001000100010034
:1007C0000100000000000000000001000100010025
:1007D0000100010000000000000001000100010014
:1007E0000100010001000000000001000000010004
:1007F00001000100010001000000000001000100F3
:1008000001000100010001000100010001000100E0
:1008100001000100010001000100010001000100D0
:1008200001000100010001000100010001000100C0
:1008300001000100010001000100010001000100B0
:1008400001000100010001000100010001000100A0
:100850000100010001000100010001000100010090
:100860000100010001000100010001000100010080
:100870000100010001000000000000000000000075
:100880000000010000000000000000000000010066
:100890000100010001000100010000000000000053
:1008A0000000010001000100010001000000000043
:1008B0000000010001000100010001000100000032
:1008C0000000010000000100010001000100010022
:1008D0000000000001000100010001000100010012
:1008E0000100010001000100010001000100010000
:1008F00001000100010001000100010001000100F0
:1009000001000100010001000100010001000100DF
:1009100001000100010001000100010001000100CF
:1009200001000100010001000100010001000100BF
:1009300001000100010001000100010001000100AF
:1009400001000100010001000100010001000000A0
:100950000000000000000000000001000000000096
:100960000000000000000100010001000100010082
:100970000100000000000000000001000100010073
:100980000100010000000000000001000100010062
:100990000100010001000000000001000000010052
:1009A0000100010001000100000000000100010041
:1009B000010001000100010001000100010001002F
:1009C000010001000100010001000100010001001F
:1009D000010001000100010001000100010001000F
:1009E00001000100010001000100010001000100FF
:1009F00001000100010001000100010001000100EF
:100A000001000100010001000100010001000100DE
:100A100001000100010001000100010001000100CE
:100A200001000100010000000000000000000000C3
:100A300000000100000000000000000000000100B4
:100A400001000100010001000100000000000000A1
:100A50000000010001000100010001000000000091
:100A60000000010001000100010001000100000080
:100A70000000010000000100010001000100010070
:100A80000000000001000100010001000100010060
:100A9000010001000100010001000100010001004E
:100AA000010001000100010001000100010001003E
:100AB000010001000100010001000100010001002E
:100AC000010001000100010001000100010001001E
:100AD000010001000100010001000100010001000E
:100AE00001000100010001000100010001000100FE
:100AF00001000100010001000100010001000000EF
:100B000000000000000000000000010000000000E4
:100B100000000000000001000100010001000100D0
:100B200001000000000000000000010001000100C1
:100B300001000100000000000000010001000100B0
:100B400001000100010000000000010000000100A0
:100B5000010001000100010000000000010001008F
:100B6000010001000100010001000100010001007D
:100B7000010001000100010001000100010001006D
:100B8000010001000100010001000100010001005D
:100B9000010001000100010001000100010001004D
:100BA000010001000100010001000100010001003D
:100BB000010001000100010001000100010001002D
:100BC000010001000100010001000100010001001D
:100BD0000100010001000000000000000000000012
:100BE0000000010000000000000000000000010003
:100BF00001000100010001000100000000000000F0
:100C000000000100010001000100010000000000DF
:100C100000000100010001000100010001000000CE
:100C200000000100000001000100010001000100BE
:100C300000000000010001000100010001000100AE
:100C4000010001000100010001000100010001009C
:100C5000010001000100010001000100010001008C
:100C6000010001000100010001000100010001007C
:100C7000010001000100010001000100010001006C
:100C8000010001000100010001000100010001005C
:100C9000010001000100010001000100010001004C
:100CA000010001000100010001000100010000003D
:100CB0000000000000000000000001000000000033
:100CC000000000000000010001000100010001001F
:100CD0000100000000000000000001000100010010
:100CE00001000100000000000000010001000100FF
:100CF00001000100010000000000010000000100EF
:100D000001000100010001000000000001000100DD
:100D100001000100010001000100010001000100CB
:100D200001000100010001000100010001000100BB
:100D300001000100010001000100010001000100AB
:100D4000010001000100010001000100010001009B
:100D5000010001000100010001000100010001008B
:100D6000010001000100010001000100010001007B
:100D7000010001000100010001000100010001006B
:100D80000100010001000000000000000000000060
:100D90000000010000000000000000000000010051
:100DA000010001000100010001000000000000003E
:100DB000000001000100010001000100000000002E
:100DC000000001000100010001000100010000001D
:100DD000000001000000010001000100010001000D
:100DE00000000000010001000100010001000100FD
:100DF00001000100010001000100010001000100EB
:100E000001000100010001000100010001000100DA
:100E100001000100010001000100010001000100CA
:100E200001000100010001000100010001000100BA
:100E300001000100010001000100010001000100AA
:100E4000010001000100010001000100010001009A
:100E5000010001000100010001000100010000008B
:100E60000000000000000000000001000000000081
:100E7000000000000000010001000100010001006D
:100E8000010000000000000000000100010001005E
:100E9000010001000000000000000100010001004D
:100EA000010001000100000000000100000001003D
:100EB000010001000100010000000000010001002C
:100EC00001000100010001000100643214643214C9
:100ED000783C1E1E140A05000000000101010202F8
:100EE000030405050607090A0B0C0E0F1112141551
:100EF00017191B1D1F212325282A2C2F3134363981
:100F00003B3E414346494C4F5255585A5D616467D8
:100F10006A6D707376797C7F8386898C8F929598C1
:100F20009B9EA2A5A7AAADB0B3B6B9BCBEC1C4C6AC
:100F3000C9CBCED0D3D5D7DADCDEE0E2E4E6E8EA0E
:100F4000EBEDEEF0F1F3F4F5F6F8F9FAFAFBFCFD4F
:100F5000FDFEFEFEFFFFFFFFFFFFFFFEFEFEFDFDAD
:100F6000FCFBFAFAF9F8F6F5F4F3F1F0EEEDEBEA42
:100F7000E8E6E4E2E0DEDCDAD7D5D3D0CECBC9C6F2
:100F8000C4C1BEBCB9B6B3B0ADAAA7A5A29E9B987A
:100F900095928F8C898683807C797673706D6A6771
:100FA00064615D5A5855524F4C494643413E3B3966
:100FB0003634312F2C2A282523211F1D1B191715E4
:100FC0001412110F0E0C0B0A090706050504030283
:100FD0000201010100000000000000000101010108
:100FE00001010101010202020202020202020303E4
:100FF00003030303030304040404040405050505B3
:10100000050606060606070707070808080809096F
:10101000090A0A0A0A0B0B0B0C0C0C0D0D0D0E0E17
:101020000F0F0F10101111111212131314141515A4
:1010300016161717181819191A1A1B1C1C1D1D1E15
:101040001F1F202021222223242525262727282967
:101050002A2B2B2C2D2E2F2F303132333435363690
:101060003738393A3B3C3D3E3F4041424344464796
:1010700048494A4B4C4D4F50515253555657585A68
:101080005B5C5E5F606263646667696A6C6D6E700C
:101090007173747678797B7C7E8081838486888A7C
:1010A0008B8D8F91929496989A9B9D9FA1A3A5A7B3
:1010B000A9ABADAFB1B3B5B7B9BBBDBFC1C4C6C8AD
:1010C000CACCCFD1D3D6D8DADCDFE1E4E6E8EBED69
:1010D000F0F2F5F7FAFCFF12036B0065007900628D
:1010E000006F006100720064000000160371006D63
:1010F000006B006200750069006C0064006500729E
:101100000000000403090409026D00040100A0FAB4
:10111000090400000103010100092111010001225D
:1011200040000705810308000A09040100010301CA
:101130000200092111010001224D00070582030868
:10114000000A090402000103000000092111010046
:10115000012236000705830308000A090403000181
:101160000300000009211101000122390007058454
:10117000032000011201100100000008EDFE606074
:1011800001000102000105010906A101050719E09E
:1011900029E7150025019508750181020508190147
:1011A00029059505750191029501750391010507C2
:1011B000190029F71500250195F875018102C00570
:1011C000010980A10185021601002603001A810091
:1011D0002A8300751095018100C0050C0901A10149
:1011E0008503160100269C021A01002A9C02751034
:1011F00095018100C005010902A1010901A10005B5
:10120000091901290515002501950575018102952A
:1012100001750381010501093009311581257F958B
:10122000027508810609381581257F9501750881A9
:1012300006050C0A38021581257F9501750881067F
:10124000C0C005010906A101050719E029E715003D
:101250002501950875018102950175088101050830
:1012600019012905950575019102950175039101F3
:101270000507190029FF150026FF0095067508814E
:1012800000C011241FBECFEFDAE0DEBFCDBF04B631
:1012900003FE27C08091DE029091DF02A091E00260
:1012A000B091E1028730904BA740B04BD1F410923F
:1012B000DE021092DF021092E0021092E10214BEF0
:1012C00084B7877F84BF0FB6F894A895809160009B
:1012D000886180936000109260000FBEE0E0F8E348
:1012E000099511E0A0E0B1E0EEEFF9E502C005904C
:1012F0000D92AE33B107D9F722E0AEE3B1E001C001
:101300001D92AE3DB207E1F70E9419260C94FD2C08
:101310000C94000080E090E008950895089581E025
:10132000089580FF02C03E9A01C03E98469881FF12
:1013300002C03F9A01C03F98479882FF02C0259A99
:1013400001C025982D98089581E008950C948F0987
:101350000E9423192FEF84E39CE0215080409040AD
:10136000E1F700C000000C945A21FF920F931F93E5
:10137000CF93DF938C01FC01C081D1818091B901B1
:10138000811113C08281882349F0CE010E949F1EE3
:10139000F82E682FCE010E94481E04C0CE010E9484
:1013A000731EF82EBE018F2D04C0CE010E949F1E19
:1013B000BE010E94730BEC01B8010E94A6098823AC
:1013C00009F43BC1B801CE010E94A40D882309F4A1
:1013D00034C1C633F0E7DF0741F4F8018281882386
:1013E00009F42BC10E94A91028C1C73380E7D80790
:1013F00008F09AC0C53190E7D90708F07EC0C23026
:10140000E0E7DE0708F452C0F8018281882309F47E
:1014100059C00E945920811102C00E9433200E94AD
:101420006C2090E09093CF028093CE02FE01E350B7
:10143000F047E231F10530F4EA5AFF4F8091CE02D5
:101440000C94AF2C8091CE02816027C0826025C0B1
:10145000846023C0806121C080621FC080641DC081
:1014600080681BC08460886018C08E7F16C08D7F26
:1014700014C08B7F12C08F7E10C08F7D0EC08F7BFB
:101480000CC08F770AC08B7F877F07C087FB22271E
:1014900020F991E0922790FB87F98093CE0280910A
:1014A000CE020E9470200E942319C7C0C115F0E728
:1014B000DF0781F0C130D047A9F081E0809340017F
:1014C00080934101C801DF91CF911F910F91FF904F
:1014D0000C94A409F8018281882309F4AEC00E940B
:1014E000A809ABC0F8018281882309F4A6C08091C5
:1014F0006502816080936502A0C0C43390E7D9077C
:1015000041F4F8018281882309F497C00E94C81130
:1015100094C0C533D04789F6F8018281882309F445
:101520008CC00E94BE1189C0CA33F0E7DF0741F4C6
:10153000F8018281882309F480C00E9415117DC0C2
:10154000CB3380E7D807D8F4F8018281C833F0E7BD
:10155000DF0731F4882309F470C00E94E0106DC0E9
:10156000C933D04730F4882309F467C00E94C11002
:1015700064C0882309F461C00E94FB105EC0CC33B4
:10158000E0E7DE0719F5F8018281882351F0109217
:1015900040010E94FF2090933F0180933E0182E032
:1015A0002AC08091400181110FC080913E0190912D
:1015B0003F010E940B21883C910530F486E20E9495
:1015C000941586E20E945C1682E01DC0CC33F0E7E1
:1015D000DF07E0F0CD33D04709F06FCFF80182810B
:1015E000882361F0109241010E94FF2090933F01F7
:1015F00080933E0180E20E94AB161FC080914101A2
:10160000882359F080E20E94B21617C0F801828147
:10161000882399F00E94301110C080913E01909172
:101620003F010E940B21883C910560F787E20E94F0
:10163000941587E20E945C16E5CF80E0DF91CF91A0
:101640001F910F91FF9008950C94F50D269A2E98F6
:101650008FEF9FEF909387008093860082E28093C4
:10166000800089E1809381000C94C0230E94260BA6
:101670000C94F30D2E9881110AC0809180008F7D0B
:101680008093800010928B0010928A0008958A3017
:1016900041F4809180008062809380008FEF9FEF03
:1016A00018C0909180009062909380002AE030E012
:1016B000A901481B5109CA0145E0489F9001499F73
:1016C000300D11248FEF9FEF02C0969587952A95D4
:1016D000E2F790938B0080938A0008950C9491090F
:1016E0000C946E0B08952CE6829FC0011124FC011E
:1016F00029E0729FE00DF11D1124E60FF11DEE0FA0
:10170000FF1FE65BFE4F859194910895880F991F06
:10171000FC01E653F14F8591949108950E94730B5B
:101720000E94270D811520E5920708F03FC0811522
:1017300030E4930708F014C1883E910508F5803E17
:10174000910508F083C1883A910578F4853A9105AE
:1017500008F09EC08130910509F478C108F42FC1CA
:101760008430910508F072C12AC18D3B910508F4BF
:101770009AC0803C910508F422C1805C9109EAC0BE
:10178000811540E2940758F4811521E0920708F092
:101790005DC1803F910508F412C1906508958115DF
:1017A00030E3930708F0D9C09F70D4C0811545E598
:1017B000940708F044C0811524E5920708F0E7C0BB
:1017C000811532E5930710F5811541E5940708F07E
:1017D000CAC09C0154E0369527955A95E1F7922F9F
:1017E0009370482F437021E030E002C0220F331F76
:1017F0004A95E2F73C68392B8F708695869540E2D2
:10180000849FC0011124822B932B0895AC01437057
:101810005527282F269526958115934508F0A8C0B1
:1018200081E090E002C0880F991F4A95E2F740E2FC
:10183000249F90011124822B932B9C680895803360
:1018400040E7940790F4803220E7920708F0AAC09E
:10185000811536E5930708F49FC09C013056211589
:10186000304108F0ACC09F709BC0813320E79207E5
:1018700009F49FC008F49AC0823340E7940709F442
:101880009BC08333904709F09AC080E093ED0895A0
:10189000853A910509F496C0863A910509F095C0FC
:1018A00082E890E40895883A910509F491C0893A54
:1018B000910509F490C08A3A910509F48FC08B3ADA
:1018C000910509F48EC08C3A910509F48DC08B3BCB
:1018D000910509F48CC08C3B910509F48BC08D3ABD
:1018E000910509F48AC0803B910509F489C08E3ABC
:1018F000910509F488C08F3A910509F487C0813BAE
:10190000910509F486C0823B910509F485C0833BAB
:10191000910509F484C0843B910509F483C0853B9B
:10192000910509F482C0863B910509F481C0873B8B
:10193000910509F480C0883B910509F47FC0893B7B
:10194000910509F47EC08A3B910509F47DC080E0D1
:1019500094E408950E94860B08959927906C089549
:101960009F70906A0895982F8827816F906A0895D4
:1019700081E090E002C0880F991F4A95E2F740E2AB
:10198000249F90011124822B932B9A680895982FFD
:101990008827846F906A08958F719927982F8827D8
:1019A0009062089580529047946D089580E091ED83
:1019B000089580E090ED089580E092ED089580E034
:1019C00090E0089581E890E4089583E890E4089514
:1019D00082EE94E4089589EE94E408958AEE94E406
:1019E000089585EB94E4089586EB94E4089583EBE1
:1019F00094E4089584EB94E4089587EB94E40895C7
:101A00008CEC94E408958DEC94E4089583E895E4D7
:101A100008958AE895E4089582E995E4089584E9B3
:101A200095E4089581E296E4089583E296E40895AA
:101A300084E296E4089585E296E4089586E296E4C9
:101A4000089587E296E408958AE296E4089582383C
:101A5000910549F1B0F48133910509F459C048F476
:101A60008932910509F44FC08A32910509F455C0B5
:101A700008958533910509F441C08933910599F0A2
:101A80000895833E910531F138F4803E910591F03F
:101A9000823E9105A9F00895863E910501F1873EA9
:101AA000910539F108952091CE0220FD3BC021FD22
:101AB00039C008958091CE0280FF34C089E341C0CF
:101AC0008091CE0282FF30C08091CE0284FD2EC074
:101AD00083EE37C08091CE0282FD26C0F5CF809183
:101AE000CE0283FF25C08091CE0284FD1FC087EE09
:101AF00028C08091CE0283FD1BC0F5CF8091CE021D
:101B000085FD18C019C08091CE0285FD15C012C098
:101B10008091CE0286FD12C013C08091CE0286FD58
:101B20000FC00CC080EE0DC082EE0BC080E009C07B
:101B300086EE07C089E205C085E303C08AE201C0E2
:101B400081E390E0089508950F931F93CF93FB01D5
:101B50002281211102C0C1E041C08C01C0914F011E
:101B6000C11125C085319047B1F70E94A30D81E0D6
:101B700080934F010E94FF2090934E0180934D016E
:101B800010924201109244011092430110924601BA
:101B900010924501109248011092470110924A019B
:101BA0001092490110924C0110924B0117C0809184
:101BB0004D0190914E010E940B21883C910558F6F1
:101BC00090914201E92FF0E0EE0FFF1FED5BFE4F19
:101BD000118300839F5F90934201C0E08C2FCF91CF
:101BE0001F910F9108950C948D090C948E09CF9339
:101BF000DF9385B7806885BF85B7806885BFA4E11E
:101C0000B1E04DE151E061E070E08D91E82FE295A7
:101C1000EF70F0E021A18F70EB0102C0CC0FDD1F4F
:101C20008A95E2F7CE019C2F9095922391A392A1E1
:101C3000892B82A34A175B0741F7ADE1B1E049E286
:101C400051E061E070E08D91E82FE295EF70F0E0F7
:101C500021A18F70EB0102C0CC0FDD1F8A95E2F746
:101C6000CE019C2F9095922391A392A1892B82A3C0
:101C70004A175B0741F7E8E6F1E0A0E5B1E080E84C
:101C800091E0119211921D921D928E179F07C9F734
:101C9000DF91CF910C94360B2F923F924F925F922F
:101CA0006F927F928F929F92AF92BF92CF92DF926C
:101CB000EF92FF920F931F93CF93DF9300D000D04A
:101CC000CDB7DEB784E1E82E81E0F82E1A821982C2
:101CD000CC24C394D12C22242394D7018D917D014F
:101CE000E82FE295EF70F0E091A18F70560101C0EE
:101CF000AA0C8A95EAF7892F8A2981A382A15A2CF6
:101D00005094852182A3B0EABA95F1F7A601098023
:101D100002C0440F551F0A94E2F73A016094709490
:101D20006DE171E000E511E01C830B83312C8B80A9
:101D30009C80D4018D919C91DB014D90BD01242D9F
:101D400022952F7030E0D90190962C9130E0B42D7F
:101D5000BF7002C035952795BA95E2F720FD05C002
:101D60009C01242B352BD40105C09C012621372151
:101D7000AB81BC812D933C932B813C812E5F3F4FE7
:101D80003C832B83D4012D913C918217930711F052
:101D9000332433942B813C812856314041F681A174
:101DA000582251A282A1A82AA2A2332041F0209257
:101DB00080010E94FF209093820180938101A9817C
:101DC000BA811196BA83A983199709F086CF8091B9
:101DD00080018823B1F080918101909182010E945D
:101DE0000B21069770F0E8E6F1E0D8018D919D9106
:101DF0008D0181939193B1E008361B07B1F71092E2
:101E000080010E94240B81E00F900F900F900F90A3
:101E1000DF91CF911F910F91FF90EF90DF90CF90C6
:101E2000BF90AF909F908F907F906F905F904F90FA
:101E30003F902F900895E82FF0E0EE0FFF1FE85934
:101E4000FE4F80819181089508952EB1342F3095F1
:101E500023233EB1432B3FB7F894FC01680F791F51
:101E6000E617F70789F0819198E04EB9000000C0AD
:101E700087FF2EB9880F000000C000C000C02EB937
:101E800000C09A9591F7ECCF3FBF08952DB1242B58
:101E90002DB99B01220F331F620F731F0E94250F64
:101EA00087EC90E00197F1F700C00000089544E04E
:101EB0000C94460FEF92FF920F931F93CF93DF93F3
:101EC000E901662309F44BC0242F30E0EFEFF0E086
:101ED000E61BF109B901E69F9001E79F300DF69FDF
:101EE000300D1124232F8B01031B11095CE3E52E18
:101EF000F12CB7010E94872CFB01BC01069FC00199
:101F0000079F900D169F900D1124B7010E94872CFA
:101F1000E230F105B1F040F4309779F0319711F5E6
:101F2000832F242F461B21C0E430F105A1F068F077
:101F30003597C1F4842F861B18C0832F262F230FBB
:101F400014C0862F830FE42F03C0E42FE61B842FD9
:101F5000432F2E2F0AC0842F462F430F06C0842FF5
:101F6000242F03C080E020E040E0E42FF0E0E952BD
:101F7000F04F4491E22FF0E0E952F04F9491E82FB6
:101F8000F0E0E952F04FE49149839883EA83DF91CE
:101F9000CF911F910F91FF90EF90089588E090E00E
:101FA0000C94BD2CAB01BC0188E090E00C94DB2CC0
:101FB000E2E9F2E083E08083109293028FEF828364
:101FC0008383609192027091930280919402909128
:101FD00095020C94D20F8091920280FF06C060E1BE
:101FE00070E08AE992E00C94570FEAE9F2E011827E
:101FF00010821282339682E0EA3CF807C1F7EFCFF5
:10200000EAE9F2E0818360834283339692E0EA3C1E
:10201000F907C1F70C94EB0FEF92FF920F931F9308
:10202000CF93DF9300D01F92CDB7DEB7009192021D
:1020300010919302209194023091950200939602A0
:102040001093970220939802309399022091920264
:1020500020FF21C0042FF62EE92E182F9E012F5F9E
:102060003F4F0E945A0F8091960210FB87F9809390
:1020700096021695809197028078182BE0FA17F94E
:1020800010939702F0929802009399024B81698114
:102090008A810E9400100F900F900F90DF91CF91D6
:1020A0001F910F91FF90EF9008950F931F93CF937F
:1020B000DF93EC01062F142F9091920290FF44C001
:1020C000892F8E77823021F4CE010E940C101BC024
:1020D000892F86958F732EE3280F2F73243018F4E1
:1020E0001091950210C0865C8F73893060F4C92FFF
:1020F000CC1FCC27CC1FD09193028D2F880FC82BDB
:10210000D7FBDD27D0F980919202C0FB87F980933D
:102110009202C695809193028078C82BD0FBC7F9B4
:10212000C0939302009394021093950260919202DF
:10213000709193028091940290919502DF91CF91DA
:102140001F910F910C94D20FDF91CF911F910F919E
:102150000895E2E9F2E02081221F2227221F309118
:102160009302432F440F842F822B37FB992790F93A
:10217000089668E671E00E949B2C438162810C9472
:10218000551020919202221F2227221F3091930284
:10219000432F440F842F822B37FB992790F98830E7
:1021A00091051CF4805A9E4F05C0089768E671E0BF
:1021B0000E949B2C40919502609194020C945510C2
:1021C00060919402862F90E0883F910514F4685F37
:1021D00001C06FEF80919202881F8827881F90911D
:1021E0009302292F220F97FB992790F9409195028E
:1021F000822B0C94551060919402862F90E00897E2
:1022000014F0685001C060E080919202881F882716
:10221000881F90919302292F220F97FB992790F9FD
:1022200040919502822B0C94551040919502842F79
:1022300090E0883F910514F4485F01C04FEF809112
:102240009202881F8827881F90919302292F220FBE
:1022500097FB992790F960919402822B0C9455106A
:1022600040919502842F90E0089714F0485001C0E7
:1022700040E080919202881F8827881F90919302E6
:10228000292F220F97FB992790F960919402822BB6
:102290000C9455109091920290FF3BC0917881115F
:1022A00002C0926007C0893110F0906303C08F7341
:1022B000880F982B909392026091920270919302F2
:1022C00080919402909195020E94D20F8091920287
:1022D000982F9E77923019F41092980109C0982F88
:1022E0009695925C9F73963118F491E090939801C3
:1022F000881F8827881F90919302292F220F97FB10
:10230000992790F94091950260919402822B0C9448
:10231000551008958091650281608093650281E087
:10232000809399010E945920811104C00E9433209A
:102330000E94D80F0E94CE0F609392027093930276
:1023400080939402909395026E7761F40E94D80F67
:102350000E94CE0F60939202709393028093940236
:102360009093950281E0809398018091920280FF82
:1023700004C086958F730C944A110895809192023F
:1023800086958F738F5F893108F081E00C944A1134
:1023900080919202982F909590FB80F98093920201
:1023A00060919202709193028091940290919502B3
:1023B0000E94D20F8091920280FF04C086958F7395
:1023C0000C944A11109298012FEF80E792E021506F
:1023D00080409040E1F700C000000C94EB0FCF93D9
:1023E000C82F80919601909197010E940B21EC2FAC
:1023F000F0E0ED52F14FE491F0E08E179F0718F1F5
:102400000E94FF209093970180939601E09195019F
:10241000F0E0E952F14F449180919202881F8827A1
:10242000881F90919302292F220F97FB992790F9EB
:1024300060919402822B0E940C108091950190E093
:10244000019680939501CF910895CF93C82F8091E5
:102450009301909194010E940B21EC2FF0E0E05346
:10246000F14FE491F0E08E179F07E8F00E94FF2003
:10247000909394018093930140919502609194020E
:1024800080919101909192010E940C108091910194
:1024900090919201019668E671E00E94872C9093DA
:1024A000920180939101CF910895CF92DF92FF9294
:1024B0000F931F93CF93DF93F82E80918F0190910C
:1024C00090010E940B21EF2DE695F0E0E053F14FD3
:1024D000E491F0E08E179F07C0F10E94FF209093D7
:1024E000900180938F010AE912E0C0E0D0E088E615
:1024F000C82EDD24D39480918D0190918E018C0F94
:102500009D1FB6010E94872C980140919502609111
:1025100094020E945A0F66960D5F1F4FC03681E0ED
:10252000D80749F70E94EB0F80918D0190918E01A1
:10253000F0FE06C0019668E671E00E94872C01C09B
:10254000019790938E0180938D01DF91CF911F9120
:102550000F91FF90DF90CF900895AF92BF92CF92EE
:10256000DF92EF92FF920F931F93CF93DF93C82FC9
:1025700080FF03C0FF24FA9402C0FF24F3948091EB
:102580008B0190918C010E940B21C695EC2FF0E0FD
:10259000E353F14FE491F0E08E179F0708F45AC01F
:1025A0000E94FF2090938C0180938B01CAE9D2E0B6
:1025B00000E010E097E0C92ED12C198218821A820F
:1025C00087E0A82EB12CE12C80918A018E0D87FD29
:1025D000805F082E000C990B08171907E9F4209169
:1025E00095022A9DC0012B9D900D1124B6010E94D9
:1025F0009B2C462F80919202881F8827881F9091DC
:102600009302592F550F97FB992790F99E016091DE
:102610009402852B0E945A0FEF0C81E0A81AB10892
:1026200099F60F5F1F4F23960031110531F60E9476
:10263000EB0F80918A0191E0F91206C0811102C06E
:102640008FE006C0815004C090E001968F709927FA
:1026500080938A01DF91CF911F910F91FF90EF90AE
:10266000DF90CF90BF90AF900895BF92CF92DF924E
:10267000EF92FF920F931F93CF93DF93CDB7DEB707
:10268000E0970FB6F894DEBF0FBECDBF182F809134
:102690008801909189010E940B21E12FF0E0E6531F
:1026A000F14FE491F0E08E179F0708F481C00E947B
:1026B000FF209093890180938801CE0101967C01CF
:1026C000C12CD12C8C01F701118210821282B12C05
:1026D0009091000180918701B99E800D112487FDA2
:1026E00004C080311CF08FE001C080E0082E000C97
:1026F000990BC816D906A1F480919202881F8827E9
:10270000881F90919302592F550F97FB992790F9A5
:1027100097014091950260919402852B0E945A0F77
:10272000B394F7E0BF12D4CF8FEFC81AD80A93E062
:10273000E90EF11CE0E1CE16D10429F6AAE9B2E0D7
:1027400089E090E0FC01EF70FF279F01220F331F0B
:10275000E20FF31FE00FF11F218111962C931197C7
:1027600020812C93228112962C9312970196139616
:102770008931910539F70E94EB0F9091000180910A
:102780008701913049F48A3F2CF489EF80938701C7
:102790008FEF08C081500AC087313CF086E18093FA
:1027A000870181E08093000103C08F5F80938701E0
:1027B000E0960FB6F894DEBF0FBECDBFDF91CF918C
:1027C0001F910F91FF90EF90DF90CF90BF900895F1
:1027D000CF93DF9380918501909186010E940B2118
:1027E000883E934028F10E94FF20909386018093B9
:1027F00085018091830190918401019681709927D0
:102800009093840180938301CAE9D2E09E014091B4
:1028100095026091940280E090E00E945A0F239606
:1028200082E0CA3CD80791F7DF91CF910C94EB0F6F
:10283000DF91CF91089580919801882371F1809163
:10284000920286958F739EE3980F9F73943018F4CD
:1028500082500C94EF119AE3980F9F73933018F401
:1028600086500C94251297E3980F9F73963018F4B6
:1028700089500C94551291E3980F9F73963018F479
:102880008F500C94AD129BE2980F9F73933018F405
:1028900085510C9435130C94E813089590939F017F
:1028A00080939E010895E0919E01F0919F013097E1
:1028B00021F00190F081E02D099480E00895E091ED
:1028C0009E01F0919F01309721F00280F381E02D6D
:1028D00009940895E0919E01F0919F01309721F0B5
:1028E0000480F581E02D0994089520919C01309198
:1028F0009D012817390771F090939D0180939C01E9
:10290000E0919E01F0919F01309721F00680F781C0
:10291000E02D0994089520919A0130919B01281788
:10292000390771F090939B0180939A01E0919E0189
:10293000F0919F01309721F00084F185E02D0994FA
:10294000089508950C94A1140E94F6200E94F70D9A
:102950000E947C210E94C0230C948A115F926F9286
:102960007F928F929F92AF92BF92CF92DF92EF921F
:10297000FF920F931F93CF93DF93CDB7DEB72A97C4
:102980000FB6F894DEBF0FBECDBF0E944C0E91EA89
:10299000692E91E0792E00E010E088248394912C38
:1029A000502E802F0E941B0F6C01F301A190B1905B
:1029B0003F01A826B926A114B104B1F40F5F1F4F3F
:1029C0000C30110569F78FEF89838A831B820E947F
:1029D000FF208160782F9D838C8349815A816B8190
:1029E0008D810E94661539C08091650281FD0E942B
:1029F000240F80E090E07401082E02C0EE0CFF1C52
:102A00000A94E2F795012E213F21232B09F18E83B1
:102A10005F82CE20DF2081E0CD2809F480E0888726
:102A20000E94FF208160782F9A8789874E815F817D
:102A300068858A850E946615000F111FF801EF5501
:102A4000FE4F80819181E826F926F182E08205C05F
:102A500001968930910579F6B1CF0E940F230E942B
:102A600053149091A0018917D9F00E9453148093B8
:102A7000A0012A960FB6F894DEBF0FBECDBFDF913E
:102A8000CF911F910F91FF90EF90DF90CF90BF906B
:102A9000AF909F908F907F906F905F900C94700B91
:102AA0002A960FB6F894DEBF0FBECDBFDF91CF914F
:102AB0001F910F91FF90EF90DF90CF90BF90AF905C
:102AC0009F908F907F906F905F900895CF93DF934A
:102AD000CDB7DEB72B970FB6F894DEBF0FBECDBFD4
:102AE0004F83588769877A878B87DE01119686E046
:102AF000FD0111928A95E9F785E0FE013796019074
:102B00000D928A95E1F749815A816B817C818D8193
:102B10009E810E94E31B2B960FB6F894DEBF0FBE7A
:102B2000CDBFDF91CF910895882309F4C4C08238C6
:102B300059F40E94531481FDBEC089E30E943D1FD9
:102B40000E94042089E30CC0833871F40E9453145E
:102B500080FDB1C083E50E943D1F0E94042083E5F3
:102B60000E947C1F0C940420843859F40E94531452
:102B700082FDA1C087E40E943D1F0E94042087E4DB
:102B8000EFCF9CEF980F913A18F40E943D1FEACFC7
:102B900090E2980F983050F4877091E001C0990F3F
:102BA0008A95EAF7892F0E94BD1FDCCF9BE5980F1D
:102BB000933070F4853A29F0863A31F083E890E05A
:102BC00005C081E890E002C082E890E00C947514A2
:102BD00098E5980F953108F06EC0883A61F1893A0E
:102BE00069F18A3A71F18B3A79F18C3A81F18B3B38
:102BF00089F18C3B91F18D3A99F1803BA1F18E3AAC
:102C0000A9F18F3AB1F1813BB9F1823BC1F1833B2C
:102C1000C9F1843BD1F1853BD9F1863BE1F1873B9A
:102C2000E9F1883BF1F1893BF9F18A3B09F43FC0B6
:102C300080E090E03EC082EE90E03BC089EE90E004
:102C400038C08AEE90E035C085EB90E032C086EB6C
:102C500090E02FC083EB90E02CC084EB90E029C083
:102C600087EB90E026C08CEC90E023C08DEC90E0E8
:102C700020C083E891E01DC08AE891E01AC082E993
:102C800091E017C084E991E014C081E292E011C0A4
:102C900083E292E00EC084E292E00BC085E292E013
:102CA00008C086E292E005C087E292E002C08AE2B4
:102CB00092E00C948B140895882309F44BC0823859
:102CC00059F40E94531481FF45C089E30E943D1FBF
:102CD0000E94042089E30CC0833871F40E945314CD
:102CE00080FF38C083E50E943D1F0E94042083E5D9
:102CF0000E947C1F0C940420843859F40E945314C1
:102D000082FF28C087E40E943D1F0E94042087E4C0
:102D1000EFCF9CEF980F913A58F390E2980F9830CC
:102D200050F4877091E001C0990F8A95EAF7892FD6
:102D30000E94C31FDFCF9BE5980F933020F480E003
:102D400090E00C947514885A853120F480E090E06E
:102D50000C948B140895882321F00E94BD1F0C94BD
:102D600004200895882321F00E94C31F0C9404209E
:102D700008958F929F92AF92BF92DF92EF92FF924F
:102D80000F931F93CF93DF937C01D62FC72FFC01A6
:102D9000058102950F70128111110E94DA1F0E94A5
:102DA000361F882379F0112369F080E28D0F883077
:102DB00048F082E00E941F1F0E94361F91E0D82E2B
:102DC000D92601C0D12CEC2FE295EF708E2F90E028
:102DD000FC01E859FF4F0C94AF2C8C2F807FCF70F3
:102DE000882311F0C295C07F112399F0CC2309F4F8
:102DF00087C180E28D0F883010F0D11104C08C2F74
:102E00000E94BD1F03C08C2F0E94CD1F0E94042072
:102E100077C18D2F0E945C16CC2309F4A8C180E2F3
:102E20008D0F883010F0D11104C08C2F0E94C31F69
:102E300003C08C2F0E94D31F0E94042098C18C2FA6
:102E4000807FCF70803211F0C295C07FDD2319F0F2
:102E5000D13099F01CC0112341F0002311F18C2FC7
:102E6000013001F50E94ED1F82C1002319F00130ED
:102E700009F47DC10E94F01F1AC0112321F0063011
:102E800008F075C10EC0053008F071C110C01123E3
:102E900061F0002331F0F701858180FF31C18F702F
:102EA00085838C2F0E94AB1662C101112FC18C2F1C
:102EB000E5C08C2F86958695837019F0813061F07E
:102EC00056C1112321F08D2F9C2F937002C080E0FA
:102ED00090E00E9475144BC1112321F08D2F9C2F7F
:102EE000937002C080E090E00E948B1440C18D2F4F
:102EF000112319F00E94172202C00E947F220E9413
:102F0000042335C18C2F837009F04CC011112FC1DF
:102F10002D2F229526952770220F220F6D2F6F706F
:102F2000862F90E0A0E0B0E04C015D01022E04C0CD
:102F3000880C991CAA1CBB1C0A94D2F7D4FF12C09F
:102F40008FE090E0A0E0B0E004C0880F991FAA1FB6
:102F5000BB1F2A95D2F7BC01CD0160957095809575
:102F6000909503C060E070E0CB01C695C695C37034
:102F7000C23051F080F4682979298A299B29C1300F
:102F800071F00E94351DF3C0682979298A299B298F
:102F90000E94511DECC00E94351DC501B4010E9464
:102FA000191DE5C0112319F08C2F817001C0869581
:102FB000882309F4DCC02D2F229526952770220F37
:102FC000220F6D2F6F70862F90E0A0E0B0E04C01D3
:102FD0005D01022E04C0880C991CAA1CBB1C0A941B
:102FE000D2F7D4FF12C08FE090E0A0E0B0E004C0C0
:102FF000880F991FAA1FBB1F2A95D2F7BC01CD01CC
:10300000609570958095909503C060E070E0CB016D
:10301000C695C695C370C23051F080F468297929ED
:103020008A299B29C13071F00E940F1EA0C0682917
:1030300079298A299B290E942B1E99C00E940F1E64
:10304000C501B4010E94F31D92C08D2F90E0FC01D8
:10305000E05EF109E531F10508F04EC0E858FF4F98
:103060000C94AF2CDF708C2F8F71112321F00E94F4
:103070008C1D8D2F17CF0E94AD1D8D2F0E94B21673
:1030800076C0112341F0053008F071C08C2F8F718C
:103090000E94D21D6CC0063008F069C0F7CF112322
:1030A00039F08C2F8F710E948C1D61C01123C9F3E0
:1030B0008C2F8F710E94AD1D5AC0112329F08C2FC7
:1030C0008F710E94771D53C00E946D1D50C0112347
:1030D00049F0CF718C2F0E948C1D63E08C2F0E94D1
:1030E000161F45C081E00E941F1F023008F43FC038
:1030F00082E00E941F1F3BC0112331F0002389F2A0
:103100008D2F0E94941533C0002391F28D2F0E94C1
:103110005C162DC04C2F4F706D2FC7010E948A097D
:103120000E94911C24C0111122C0CF70C23099F0AE
:1031300038F4CC2369F0C130D1F40E94EE2317C0DB
:10314000C33061F0C43099F48D2F0E9440240FC029
:103150000E94D1230CC00E940A2409C00E941D2491
:1031600006C04C2F4F706D2FC7010E94720BDD20DF
:10317000E1F00E94121F80FD18C0F70112820E9428
:103180000C1F0E948C1DC7010E94E1180E940C1F99
:10319000DF91CF911F910F91FF90EF90DF90BF9043
:1031A000AF909F908F900C94AD1DDF91CF911F91A8
:1031B0000F91FF90EF90DF90BF90AF909F908F9016
:1031C00008950F931F93CF93DF93EC01988189812A
:1031D0002B813C81232B31F08F3F31F481E09F3FE5
:1031E00019F403C081E001C080E080FD13C0CE016E
:1031F0000E94B509882371F0688179818A810E94D3
:10320000E91E8C010E94471E0E940E1DB801CE01CE
:103210000E94B916DF91CF911F910F9108950E94DE
:10322000DA1F0E94EA1F0E94AF1F0E9404200E9422
:10323000B4230E94042380E090E00E94751480E093
:1032400090E00C948B140E94CA1F0C940F190E94DA
:10325000DE1EE92FE295EF704E2F50E0FA01329713
:10326000EE30F105B0F4E357FF4F0C94AF2C803FE4
:1032700091F018F4803E68F40EC0843F51F40BC006
:10328000803E48F0813F29F406C093FB882780F9EF
:10329000089580E0089581E00895CF93DF9300D0F2
:1032A00000D01F92CDB7DEB70F900F900F900F9008
:1032B0000F90DF91CF910895CF93DF9300D000D08E
:1032C00000D0CDB7DEB726960FB6F894DEBF0FBE9E
:1032D000CDBFDF91CF9108951F93CF93DF93C0911E
:1032E000BA0116E08091BB01C81799F0D0E01C9F8D
:1032F000F0011D9FF00D1124E454FE4F40815181D7
:1033000062817381848195810E945C192196C770C6
:10331000E9CFDF91CF911F9108954091EC01509139
:10332000ED016091EE017091EF018091F0019091BB
:10333000F1010C945C19CF938091F10182958F700B
:1033400009F05FC08091EE01882309F45AC0809192
:10335000BA01B091BB017091EC01A091ED014091D7
:10336000EF015091F00191E07F3F09F090E0692F6B
:10337000C6E08B1709F445C04115510521F0AF3F58
:1033800021F020E003C021E001C0262F90E020FDC5
:1033900035C0C89FF001C99FF00D1124E454FE4FC1
:1033A00021812A132BC02081271328C022812111BB
:1033B00025C0238134812417350710F421503109A9
:1033C000241B350B283C3105C8F42091F1012F70E6
:1033D00020612093F10126E0289FF001299FF00D44
:1033E0001124EF53FE4F80818F70806180838CEEBB
:1033F00091E00E94E118CF910C946C1901968770AE
:10340000B8CFCF910895AF92BF92CF92DF92EF9253
:10341000FF920F931F93CF93DF93CDB7DEB76197E2
:103420000FB6F894DEBF0FBECDBF8C0185E0F8016A
:10343000DE011D9601900D928A95E1F7D8014C911D
:1034400011965C9111971296EC903091EC0160917D
:10345000ED018091EF019091F001009731F06F3F05
:1034600031F421E03F3F19F403C021E001C020E026
:10347000B22FB170BB2E20FD64C1F801C380D4808F
:10348000A090EE01AA2009F4C3C02091F101C81652
:10349000D90628F0D601A81BB90BCD0104C0809530
:1034A00090958C0D9D1DFF24F394883C910580F030
:1034B000F12C207F09F09CC07C2DD98AC88A6E2D02
:1034C00089890E944D198CEE91E00E94E118B4C0E8
:1034D000822F807F09F054C0561314C0431312C0CA
:1034E000FE2CE1100FC02F7020612093F1010E948B
:1034F0008D198CEE91E00E94E1188091F101F801A4
:1035000085834FC1CD2831F05F3F31F481E04F3FDB
:1035100019F403C081E001C080E080FD03C081E0B8
:103520008E2502C080E090E0F82FF170FF2E80FF22
:103530001CC08091BA012091BB0136E0821709F4CA
:103540000DC190E0389FF001399FF00D1124E45433
:10355000FE4F6181561306C06081461303C062812D
:10356000E61203C001968770E9CFFE2CEE2009F425
:1035700018C18091F10181608093F101F12C11C19A
:10358000561309C0431307C0E11005C08091F10133
:10359000F8018583B0C04D875E878D859E850E942A
:1035A0002719882379F1EE2069F12091F101822F0A
:1035B00082958F7090E0029774F08091EC01909169
:1035C000ED0198878F831986DB86CA862C87CE010A
:1035D00007960E94E11886E0F801ACEEB1E0019098
:1035E0000D928A95E1F70E949B190E948D190DC0DA
:1035F000561761F14D875E878D859E850E9427193C
:10360000811138C0C8010E94E118FF24F394C9C099
:10361000C816D90608F446C0F601E81BF90BCF011D
:10362000883C910508F443C0F12C7C2DD98AC88AC6
:103630006E2D89890E944D19ECEEF1E086E0DF01E4
:103640001D928A95E9F70E948D19ABC04313D2CF22
:10365000E110D0CF8091F101F8018583C8010E946B
:10366000E11886E0ECEEF1E0DF011D928A95E9F7C2
:10367000FA2C97C0EE2031F22091F101822F829531
:103680008F7090E002970CF4A6CF8091EC0190919E
:10369000ED019A8389831B82DD82CC822E83CE0149
:1036A000019697CF809590958C0D9D1DB9CFFE2CDE
:1036B000EE2009F4A7CF561333C0431331C0209135
:1036C000F10120FD24C0822F82958F70482F50E099
:1036D00041155105E1F0D80115962C9315974F30FF
:1036E000510549F08F5F982F9295907F822F8F70B0
:1036F000892B15968C93C8010E94E11886E0F80189
:10370000ACEEB1E001900D928A95E1F79CCF86E096
:10371000F801ACEEB1E001900D928A95E1F741C05D
:103720004D875E878D859E850E942719811153CF15
:103730008091F10181608093F101C8010E94E1183C
:1037400030C0EE2009F45ECF4D875E878D859E8563
:103750000E942719882309F455CF3DCF4D875E87F6
:103760008D859E850E94DE1E292F22952F70223086
:1037700028F49F7039F0811105C00BC0243028F463
:103780009F7049F4805E883020F0C8010E94E118E3
:10379000BF2CFB2C06C0D80115969C91907F91F709
:1037A000F8CF8F2D61960FB6F894DEBF0FBECDBF58
:1037B000DF91CF911F910F91FF90EF90DF90CF900D
:1037C000BF90AF9008951F93CF93DF93CDB7DEB72F
:1037D0002C970FB6F894DEBF0FBECDBF4F8358872E
:1037E00069877A878B879C87CE0107960E94031A88
:1037F0008823D1F09F8188852A853B85232B31F052
:103800008F3F31F481E09F3F19F403C081E001C094
:1038100080E080FD47C04F81588569857A858B851A
:103820009C850E945C193EC086E0FE013796DE0151
:10383000119601900D928A95E1F7FF81E8856A85DE
:103840007B856115710531F0EF3F31F481E0FF3F79
:1038500019F403C081E001C080E080FD23C0209105
:10386000BB0130E0C9010196877099274091BA01E8
:1038700050E084179507F1F1F983EA837D836C8327
:1038800096E0929FD001939FB00D1124A454BE4F97
:10389000FE01319601900D929A95E1F78093BB015C
:1038A0000E946C1916E08091BA019091BB018917B2
:1038B00071F1189FC001112484549E4F0E94031A75
:1038C000882329F1E091BA011E9FF0011124E454EC
:1038D000FE4F4081518162817381848195810E9474
:1038E0005C198091BA0190E00196877099278093C6
:1038F000BA01D9CF0E9423191092BB011092BA01CC
:10390000ECEEF1E086E0DF011D928A95E9F72C9656
:103910000FB6F894DEBF0FBECDBFDF91CF911F91E0
:103920000895EF92FF920F931F93CF93DF938C0133
:10393000892B09F46CC0F12CEE24E394E801219664
:10394000F8018491843740F4843008F051C081300C
:1039500081F0823019F15BC0853709F444C0A8F1C9
:103960009CE7980F903708F052C08F770E945C1642
:1039700041C00E5F1F4FFE01849190E2980F983076
:1039800050F48770FE2D01C0FF0F8A95EAF78F2F44
:103990000E94DD1F14C00E9494152DC00E5F1F4FA2
:1039A000FE01849190E2980F983060F48770FE2DAC
:1039B00001C0FF0F8A95EAF78F2F0E94E31F0E9434
:1039C000042019C00E945C1616C00E5F1F4FFE0136
:1039D000C491CC2381F08FE99FE00197F1F700C0FB
:1039E0000000C150F6CF0E5F1F4FFE01F49003C0E0
:1039F0000E9494158E018F2D882309F49FCFEFE943
:103A0000FFE03197F1F700C000008150F5CFDF9162
:103A1000CF911F910F91FF90EF90089508956093BB
:103A20003C0270933D0280933E0290933F020C94BF
:103A30000F190F931F9300913C0210913D022091AA
:103A40003E0230913F02DC01CB01802B912BA22B57
:103A5000B32B80933C0290933D02A0933E02B0931F
:103A60003F021F910F910C940F190F931F93009118
:103A70003C0210913D0220913E0230913F02DC0158
:103A8000CB0180239123A223B32380933C02909304
:103A90003D02A0933E02B0933F021F910F910C9400
:103AA0000F190F931F9300913C0210913D0220913A
:103AB0003E0230913F02DC01CB0180279127A227F3
:103AC000B32780933C0290933D02A0933E02B093B3
:103AD0003F021F910F910C940F191092380210920F
:103AE000390210923A0210923B020C940F1941E0F5
:103AF00050E060E070E004C0440F551F661F771F60
:103B00008A95D2F7409338025093390260933A0273
:103B100070933B020C940F1941E050E060E070E0BC
:103B200004C0440F551F661F771F8A95D2F78091F6
:103B3000380290913902A0913A02B0913B02482B91
:103B4000592B6A2B7B2B4093380250933902609398
:103B50003A0270933B020C940F1941E050E060E090
:103B600070E004C0440F551F661F771F8A95D2F777
:103B700040955095609570958091380290913902EA
:103B8000A0913A02B0913B02482359236A237B2338
:103B9000409338025093390260933A0270933B028B
:103BA0000C940F1941E050E060E070E004C0440F55
:103BB000551F661F771F8A95D2F780913802909122
:103BC0003902A0913A02B0913B02482759276A274F
:103BD0007B27409338025093390260933A027093E6
:103BE0003B020C940F190F931F9300913802109110
:103BF000390220913A0230913B02DC01CB01802B4B
:103C0000912BA22BB32B8093380290933902A0936F
:103C10003A02B0933B021F910F910C940F190F932E
:103C20001F93009138021091390220913A0230918D
:103C30003B02DC01CB0180239123A223B323809399
:103C4000380290933902A0933A02B0933B021F913D
:103C50000F910C940F190F931F930091380210913C
:103C6000390220913A0230913B02DC01CB018027DE
:103C70009127A227B3278093380290933902A0930B
:103C80003A02B0933B021F910F910C940F190895C3
:103C900029E0929F800D1124E82FE695E695E695A0
:103CA000877051E001C0550F8A95EAF785E0E89FDB
:103CB000F0011124EE50FE4F20E030E070E0408132
:103CC000CB01022E02C0969587950A94E2F7817087
:103CD000819584278523842781932F5F3F4F25304B
:103CE000310569F7089529E0929F800D1124682F0E
:103CF000669566956695982F977085E0689FB001E8
:103D0000112440E050E080E0FB01E40FF51FEE508D
:103D1000FE4F208130E0092E02C0369527950A9487
:103D2000E2F721703327042E01C0220F0A94EAF72C
:103D3000822B4F5F5F4F4530510531F70895CF9289
:103D4000DF92EF92FF920F931F93CF93DF938C013B
:103D5000C0903802D0903902E0903A02F0903B02D5
:103D600080913C0290913D02A0913E02B0913F02B1
:103D7000C82AD92AEA2AFB2ACFE1D0E0D701C60116
:103D80000C2E04C0B695A795979587950A94D2F7FF
:103D900080FD04C0219790F780E007C0B8018C2F08
:103DA0000E948E0B0197B1F38C2FDF91CF911F9161
:103DB0000F91FF90EF90DF90CF900895CF93DF9316
:103DC000EC010E949F1EBE010E948E0BDF91CF91DD
:103DD00008951F93CF93DF93EB019091B90199233D
:103DE00021F0CB010E94DE1E13C0882349F0CB01D5
:103DF0000E949F1E182F682FCE010E94481E04C0EB
:103E0000CB010E94731E182FBE01812F0E948E0BC2
:103E1000DF91CF911F9108958091400285958595FE
:103E200085950895809140028770089598E0899F54
:103E300090011124262B209340020C948C1D20917C
:103E400040028095822380934002982F977069F4F6
:103E500030E0482F082E000C550B2417350729F0A9
:103E60008595859585950C94AD1D0895909140029A
:103E7000977081E009F480E00895909113019923EF
:103E8000F1F09091CE0297FF1AC0982F96959695D3
:103E900096959F3181F1E0910101F0910201E90FC6
:103EA000F11D877021E030E0A90102C0440F551FC9
:103EB0008A95E2F7CA019181892B81830895209127
:103EC000010130910201F90132969FEF40E05191DA
:103ED000851789F09F3F19F4511101C0942F4F5F4E
:103EE0004E31A9F79F3F39F0F901E90FF11D97FD18
:103EF000FA95828308950895909113019923F9F01A
:103F00009091CE0297FF1BC0982F96959695969507
:103F10009F3121F1E0910101F0910201E90FF11DC2
:103F2000877021E030E0A90102C0440F551F8A9537
:103F3000E2F7CA0180959181892381830895E091F8
:103F40000101F09102019F01225E3F4F928189138E
:103F500001C012823196E217F307C1F7089581E09C
:103F600090E0E0910101F0910201E80FF91F108249
:103F7000019680329105A9F7089590916402892BEA
:103F800080936402089580959091640289238093C0
:103F90006402089510926402089590916302892B3F
:103FA00080936302089580959091630289238093A2
:103FB0006302089510926302089590916202892B22
:103FC0008093620208958095909162028923809384
:103FD000620208951092620208958093410208954A
:103FE0001092410208958091010190910201FC011B
:103FF00031969C01205E3F4F80E0919191118F5F3F
:10400000E217F307D1F70895E0910101F091020161
:10401000809164028083E0910101F091020190811E
:1040200080916302892B8083E0910101F09102016C
:10403000908180916202892B808380914102882344
:1040400061F0E0910101F09102019081892B808360
:104050000E94F31F81111092410280910101909101
:1040600002010C945F146DEE7EEF80E090E00E9400
:10407000E72C60E082E090E00E94C92C60E083E0E1
:1040800090E00E94C92C60E084E090E00E94C92C7E
:1040900060E085E090E00E94C92C60E086E090E05E
:1040A0000E94C92C40E050E0BA0188E090E00C94F6
:1040B000DB2C80E090E00E94C32C21E08D3E9E4FDF
:1040C00009F020E0822F089582E090E00C94B52C56
:1040D00083E090E00C94B52C84E090E00C94B52C37
:1040E000682F84E090E00C94C92C86E090E00C945A
:1040F000B52C682F86E090E00C94C92C8091D502F5
:10410000843051F11092660220E488E190E00FB60D
:10411000F894A895809360000FBE2093600080E023
:104120000E943A0B80E00E94700B83B7817F84600D
:1041300083BF83B7816083BF7894889583B78E7F70
:1041400083BF0FB6F894A895809160008861809332
:104150006000109260000FBE089508950C94AD2089
:10416000CF930E94AE200E944C0E0E94AD20C0E072
:104170008C2F0E941B0F892B29F4CF5FCC30C1F705
:1041800080E001C081E0CF9108950E9423190E9430
:10419000C0230E9453140C94700B1F920F920FB601
:1041A0000F9211248F939F93AF93BF9380916602D8
:1041B000811113C08091CA029091CB02A091CC02D0
:1041C000B091CD024196A11DB11D8093CA0290937A
:1041D000CB02A093CC02B093CD02BF91AF919F913F
:1041E0008F910F900FBE0F901F90189582E084BDA5
:1041F00093E095BD9AEF97BD80936E0008952FB719
:10420000F8948091CA029091CB02A091CC02B09117
:10421000CD022FBF0895CF92DF92EF92FF920F93BE
:104220001F932FB7F8944091CA025091CB0260912E
:10423000CC027091CD022FBF6A017B01EE24FF24D6
:104240008C0120E030E0C016D106E206F30610F43F
:10425000415051099A01281B390BC9011F910F9137
:10426000FF90EF90DF90CF9008951F920F920FB6BE
:104270000F9211248F939F93AF93BF938091CA02A3
:104280009091CB02A091CC02B091CD020196A11DDC
:10429000B11D8093CA029093CB02A093CC02B0933D
:1042A000CD02BF91AF919F918F910F900FBE0F9054
:1042B0001F9018950E945328F8942FEF87EA91E6F3
:1042C000215080409040E1F700C0000087E090EB73
:1042D000DC018093DE029093DF02A093E002B093B2
:1042E000E1029CE088E10FB6F894A8958093600005
:1042F0000FBE90936000FFCF0E945920811102C031
:104300000E9433200E946420809365020E946C20EA
:1043100090E09093CF028093CE020E946820682F95
:1043200070E080E090E00C940F1D8091690280FFA6
:104330000BC06091060185E0689FB001112475955E
:104340006795759567952BC081FF09C0609106013F
:1043500085E0689FB00111247595679520C082FFA4
:1043600007C06091060185E0689FB001112417C065
:1043700090916A029923D1F060910501961788F710
:104380002091060185E0289F90011124929FA001B1
:10439000939F500D112470E0CA010E949B2C60383D
:1043A000710540F46115710519F406C065E070E00F
:1043B000862F08958FE7089581E00895809169021E
:1043C00080FF08C06091040170E075956795759550
:1043D000679521C081FF06C06091040170E075956A
:1043E000679519C082FF04C06091040170E010C09D
:1043F00090916A02992399F0609103019617A0F7B2
:1044000080910401899FC001112470E00E949B2CBF
:104410006038710540F46115710519F406C061E05A
:1044200070E0862F08958FE7089581E00895803F1A
:1044300021F40E949521819504C0813F29F40E94B6
:10444000952180936D020895823F21F40E94952169
:10445000819504C0833F29F40E94952180936C02CA
:104460000895893F19F40E94DE2105C08A3F31F486
:104470000E94DE21819580936E0208958B3F21F486
:104480000E94DE21819504C08C3F29F40E94DE2128
:1044900080936F020895843F21F480916B028160C4
:1044A00017C0853F21F480916B02826011C0863F66
:1044B00021F480916B0284600BC0873F21F48091CE
:1044C0006B02886005C0883F31F480916B02806187
:1044D00080936B0208958D3F21F480916902816081
:1044E0000BC08E3F21F480916902826005C08F3F2E
:1044F00029F4809169028460809369020895803F65
:1045000039F480916D0287FF6CC010926D0269C012
:10451000813F29F480916D021816BCF362C090911E
:104520006C02823F29F497FF5CC010926C0259C064
:10453000833F19F41916CCF354C0893F41F480919C
:104540006E0218160CF04DC010926E024AC08A3FDF
:1045500029F480916E0287FF44C0F6CF8B3F39F477
:1045600080916F0287FF3DC010926F023AC08C3F6E
:1045700029F480916F021816BCF333C0843F21F4F4
:1045800080916B028E7F17C0853F21F480916B0272
:104590008D7F11C0863F21F480916B028B7F0BC011
:1045A000873F21F480916B02877F05C0883F31F4FB
:1045B00080916B028F7E80936B0213C08D3F21F43C
:1045C000809169028E7F0BC08E3F21F48091690239
:1045D0008D7F05C08F3F29F4809169028B7F809386
:1045E000690280916C0281110EC080916D0281116F
:1045F0000AC080916E02811106C080916F02811104
:1046000002C010926A0208958BE692E00E946A143A
:104610000E94FF20909368028093670208951F9381
:10462000CF93DF9380916702909168020E940B21E3
:10463000AC0190916A02992321F02091070130E0AA
:1046400006C0209108018AE0289F9001112442179A
:10465000530708F485C080916C02C0916D02D0911F
:104660006E0210916F02811107C0C11175C0D11186
:1046700073C0111171C074C09F3F19F09F5F909378
:104680006A02181624F40E94952180936C0280918E
:104690006C0287FF05C00E949521819580936C0272
:1046A0001C1624F40E94952180936D0280916D0266
:1046B00087FF05C00E949521819580936D026091CE
:1046C0006C02662331F1C0916D02CC2311F1062EEC
:1046D000000C770B880B990B0E948E2B23E333E39E
:1046E00043E35FE30E94F22B0E94562B60936C021F
:1046F0006C2FCC0F770B880B990B0E948E2B23E32A
:1047000033E343E35FE30E94F22B0E94562B609356
:104710006D021D1624F40E94DE2180936E028091AA
:104720006E0287FF05C00E94DE21819580936E0294
:10473000111624F40E94DE2180936F0280916F0293
:1047400087FF05C00E94DE21819580936F02DF9173
:10475000CF911F910C9404239F3F09F08FCFA0CFDE
:10476000DF91CF911F910895EBE6F2E085E0DF0144
:104770001D928A95E9F710926A02109269020895D3
:104780000E945920811102C00E9433200E9475208E
:104790008093D00280FF02C0869501C080E00C9417
:1047A0003A0B2091D002822F8695482F50E04A3054
:1047B000510544F48F5F982F990F822F8170892BB8
:1047C0008093D0028091D00281608093D0020E94B9
:1047D00079208091D00286950C943A0B8091D0027A
:1047E000982F969591F09158990F8170892B80930D
:1047F000D0028E7F91E009F490E08091D00290FB8E
:1048000080F98093D0020E9479208091D002869511
:104810000C943A0B8091D002982F909590FB80F9E0
:104820008093D0020E9479208091D00280FF02C044
:10483000869501C080E00C943A0B9091D002892FAC
:1048400086958F5F8F7791708B3028F4880F892B36
:104850008093D00202C09093D0028091D0028E7FCC
:1048600091E009F490E08091D00290FB80F9809370
:10487000D0020E9479208091D00286950C943A0B48
:104880002091D002922F96958927982F990F822FE9
:104890008170892B8093D0028E7F91E009F490E0A3
:1048A0008091D00290FB80F98093D0020E94792001
:1048B0008091D00286950C943A0B809190020895D5
:1048C000CF93DF9300D01F92CDB7DEB79C018091CC
:1048D000D502843019F593E099833B832A83909322
:1048E000E9008FEF9091E800815095FD06C095EDAD
:1048F0009A95F1F700008111F5CF8091E80085FFCE
:104900000DC040E050E063E070E0CE0101960E94EF
:10491000C2268091E8008E778093E8000F900F9078
:104920000F90DF91CF910895CF93DF9300D01F9226
:10493000CDB7DEB72091D502243031F522E02983AE
:10494000805891099B838A8383E08093E9008FEFED
:104950009091E800815095FD06C095ED9A95F1F78C
:1049600000008111F5CF8091E80085FF0DC040E087
:1049700050E063E070E0CE0101960E94C226809173
:10498000E8008E778093E8000F900F900F90DF91F2
:10499000CF9108952091D5022430F1F422E02093A4
:1049A000E9002FEF3091E800215035FD06C035EDCC
:1049B0003A95F1F700002111F5CF2091E80025FF8D
:1049C0000BC040E050E065E070E00E94C22680919C
:1049D000E8008E778093E8000895CF93DF93EC0191
:1049E0009091D502943009F046C08091130188233C
:1049F000D9F08091CE0287FF17C09093E9008FEF26
:104A00009091E800815095FD06C095E19A95F1F7E7
:104A100000008111F5CF8091E80085FF2CC040E0B7
:104A200050E060E270E017C081E08093E9008FEF12
:104A30009091E800815095FD06C095ED9A95F1F7AB
:104A400000008111F5CF8091E80085FF14C040E09F
:104A500050E068E070E0CE010E94C2268091E8003C
:104A60008E778093E80080E2FE01A0E7B2E001903B
:104A70000D928A95E1F7DF91CF9108958091D4024C
:104A8000811109C00E9453280E94B0288091E20041
:104A900084608093E20008951092D40208950895EE
:104AA00008950C94C52042E061EC81E00E94CC277F
:104AB00042E061EC82E00E94CC2742E061EC83E0BE
:104AC0000E94CC2742E261EC84E00C94CC278091D8
:104AD000D702833009F455C030F4813071F0823050
:104AE00009F48EC008958A3009F47AC08B3009F435
:104AF00060C0893009F09CC020C08091D602813A04
:104B000009F096C08091E800877F8093E80080914B
:104B1000DA029091DB02892B21F460E280E792E0D7
:104B200003C060E080E090E070E00E940D2780917B
:104B3000E8008B778093E80008958091D602813257
:104B400009F076C08091DA029091DB02009719F0AB
:104B5000039709F06DC08091E800877F8093E8009B
:104B60008091E80082FD05C08091D5028111F8CFC7
:104B70005FC08091F100809390028091E8008B7774
:104B800053C08091D602813A09F052C08091DA0276
:104B90009091DB02892B09F04BC08091E800877F60
:104BA0008093E8008091E80080FFFCCF80911301A2
:104BB00036C08091D6028132D9F58091DA02909187
:104BC000DB02892BA9F58091E800877F8093E800BC
:104BD0000E9401288091D802809313010C9423191C
:104BE0008091D602813221F58091E800877F809301
:104BF000E8000E9401288091D902809391020895D3
:104C00008091D602813AA1F48091E800877F809359
:104C1000E8008091E80080FFFCCF809191028093B2
:104C2000F1008091E8008E778093E8000C940128D1
:104C3000089584B7877F84BF0FB6F894A8958091B4
:104C40006000886180936000109260000FBE80E871
:104C500080936100109261000E94A2140E94532868
:104C60000E94B0288091E20084608093E2007894F2
:104C70000E943B2B0E94A41489E091E00E944E14F4
:104C80008091D502853069F40E947E208091D30204
:104C90008823B1F30E94B020882391F30E94AC26B0
:104CA000EFCF0E94AE140E941B14EACF292F3327A6
:104CB00023303105C9F060F42130310581F0223014
:104CC000310509F041C08DE690E027E031E140C0B8
:104CD00021323105E1F02232310531F135C082E176
:104CE00090E024E731E134C099278130910549F003
:104CF00028F0029749F5E7EDF0E105C0E3E0F1E1C6
:104D000002C0EBEEF0E1849190E09F0121C064309D
:104D1000D8F4E62FF0E0EE0FFF1FEB5CFE4F208192
:104D2000318189E090E014C0643070F470E0FB01E0
:104D3000EE0FFF1FE35DFE4F20813181FB01E75D38
:104D4000FE4F808190E004C080E090E020E030E001
:104D5000FA0131832083089580E189BD82E189BD14
:104D600009B400FEFDCF8091D8008F7D8093D800DC
:104D70008091E00082608093E0008091E00081FDFE
:104D8000FCCF0895CF92DF92EF92FF920F931F9383
:104D9000CF93DF93EC018B017A010E9420288111CF
:104DA00033C0E114F10439F0F70180819181081BCF
:104DB000190BC80FD91FC12CD12C0115110519F1E0
:104DC0008091E80085FD16C08091E8008E77809381
:104DD000E800E114F10449F0F70180819181C80EE7
:104DE000D91ED182C08285E00FC00E94202888236E
:104DF00021F30AC089918093F10001501109FFEF5E
:104E0000CF1ADF0ADACF80E0DF91CF911F910F91A7
:104E1000FF90EF90DF90CF9008952091DC023091C9
:104E2000DD022617370748F06115710539F4209126
:104E3000E8002E772093E80001C0B901FC0120E0D2
:104E40006115710579F18091D5028823F1F18530E2
:104E5000F1F18091E80083FD3CC08091E80082FD83
:104E60002EC08091E80080FFEBCF2091F30080916D
:104E7000F20090E0922B6115710551F08830910598
:104E800038F421912093F100615071090196F3CF1C
:104E900021E0089709F020E08091E8008E77809368
:104EA000E800CECF2111CFCF0AC08091D502882350
:104EB00061F0853061F08091E80083FD0AC0809147
:104EC000E80082FFF2CF80E0089582E0089583E059
:104ED000089581E008952091DC023091DD022617CB
:104EE000370748F06115710539F42091E8002E77F5
:104EF0002093E80001C0B901FC0120E061157105B3
:104F000091F18091D502882309F440C0853009F4DD
:104F10003FC08091E80083FD3DC08091E80082FDA4
:104F20002FC08091E80080FFE9CF2091F3008091AD
:104F3000F20090E0922B6115710559F088309105CF
:104F400040F424912093F10031966150710901964B
:104F5000F2CF21E0089709F020E08091E8008E77F9
:104F60008093E800CBCF2111CCCF0AC08091D5022D
:104F7000882361F0853061F08091E80083FD0AC0EC
:104F80008091E80082FFF2CF80E0089582E00895EA
:104F900083E0089581E00895982F973068F5909305
:104FA000E900981739F07091EC002091ED005091D4
:104FB000F00003C0242F762F50E021FD02C09F5F38
:104FC000ECCF3091EB003E7F3093EB003091ED0061
:104FD0003D7F3093ED003091EB0031603093EB007A
:104FE0007093EC002093ED005093F0002091EE00C0
:104FF00027FDE5CF80E008958F708093E90081E080
:1050000008958091D60287FF11C08091E80082FD4B
:1050100005C08091D5028111F8CF11C08091E800C0
:105020008B770BC08091D502882349F08091E800EE
:1050300080FFF8CF8091E8008E778093E800089594
:105040002091E4003091E50095E64091EC00842F3A
:10505000817040FF23C08091E80080FD1DC08091D9
:10506000D502882399F0853099F08091EB0085FD79
:1050700011C04091E4005091E5002417350729F351
:10508000915011F09A01E1CF84E0089582E00895F3
:1050900083E0089581E0089580E008954091E8005C
:1050A00042FFDDCF08950E94C1280E94C928E0EE8A
:1050B000F0E0808181608083E8EDF0E080818F778F
:1050C000808319BCA7EDB0E08C918E7F8C9380819A
:1050D0008F7E80831092D40208950F931F93CF93F5
:1050E000DF930E94C1280E94C928C8EDD0E08881C2
:1050F0008F77888388818068888388818F7D888383
:1051000019BC1092D5021092D1021092D3021092C3
:10511000D20200EE10E0F80180818B7F80838881CD
:105120008160888342E060E080E00E94CC27E1EE6D
:10513000F0E080818E7F8083E2EEF0E0808181600C
:105140008083808188608083F80180818E7F808366
:10515000888180618883DF91CF911F910F9108959D
:10516000E8EDF0E080818F7E8083E7EDF0E08081E4
:105170008160808384E082BF81E08093D4020C94BC
:105180006D28E8EDF0E080818E7F80831092E20050
:1051900008951092DA001092E10008951F920F9284
:1051A0000FB60F9211242F933F934F935F936F93FA
:1051B0007F938F939F93AF93BF93EF93FF938091D0
:1051C000E10082FF0BC08091E20082FF07C0809166
:1051D000E1008B7F8093E1000E943A2B8091DA00FE
:1051E00080FF1FC08091D80080FF1BC08091DA0033
:1051F0008E7F8093DA008091D90080FF0DC080E11E
:1052000089BD82E189BD09B400FEFDCF81E08093B4
:10521000D5020E943E2505C019BC1092D5020E94FD
:105220004C258091E10080FF19C08091E20080FF51
:1052300015C08091E2008E7F8093E2008091E200B1
:1052400080618093E2008091D80080628093D800D2
:1052500019BC85E08093D5020E9450258091E10021
:1052600084FF30C08091E20084FF2CC080E189BDC2
:1052700082E189BD09B400FEFDCF8091D8008F7D09
:105280008093D8008091E1008F7E8093E10080912F
:10529000E2008F7E8093E2008091E2008160809343
:1052A000E2008091D102882311F084E007C0809150
:1052B000E30087FD02C081E001C083E08093D50256
:1052C0000E9451258091E10083FF29C08091E20076
:1052D00083FF25C08091E100877F8093E10082E019
:1052E0008093D5021092D1028091E1008E7F80934D
:1052F000E1008091E2008E7F8093E2008091E200E5
:1053000080618093E20042E060E080E00E94CC2770
:105310008091F00088608093F0000E944F25FF91FB
:10532000EF91BF91AF919F918F917F916F915F911D
:105330004F913F912F910F900FBE0F901F90189596
:105340001F920F920FB60F9211242F933F934F93FA
:105350005F936F937F938F939F93AF93BF93CF93FD
:10536000DF93EF93FF93C091E900CF708091EC0041
:10537000D82FD17080FDD0E81092E9008091F00024
:10538000877F8093F00078940E94E4291092E900CE
:105390008091F00088608093F000CD2BCF70C09397
:1053A000E900FF91EF91DF91CF91BF91AF919F9174
:1053B0008F917F916F915F914F913F912F910F90BE
:1053C0000FBE0F901F9018951F93CF93DF93CDB70B
:1053D000DEB7AA970FB6F894DEBF0FBECDBFE6EDDD
:1053E000F2E08091F100819322E0EE3DF207C9F7EF
:1053F0000E9467258091E80083FF24C18091D60236
:105400009091D702492F50E04A30510508F01AC157
:10541000FA01E556FF4F0C94AF2C803881F08238AA
:1054200009F010C18091DA028F708093E9008091B9
:10543000EB0085FB882780F91092E90006C0809177
:10544000D2029091D302911182609091E800977FEF
:105450009093E8008093F1001092F100C8C0282FCB
:105460002D7F09F0EFC0882319F0823061F0EAC087
:105470008091D802813009F0E5C0933009F080E0D6
:105480008093D3022BC08091D802811127C08091D4
:10549000DA028F7009F4D6C08093E9002091EB0006
:1054A00020FF1CC0933021F48091EB00806214C077
:1054B0009091EB0090619093EB0021E030E0A90126
:1054C00002C0440F551F8A95E2F74093EA001092FC
:1054D000EA008091EB0088608093EB001092E90075
:1054E0008091E800877F86C08111ACC01091D802FE
:1054F0001F778091E3008078812B8093E300809177
:10550000E800877F8093E8000E9401288091E800EE
:1055100080FFFCCF8091E30080688093E30011114D
:1055200002C082E001C083E08093D5028BC0805826
:10553000823008F087C08091D8029091D9028C3DCA
:1055400053E0950779F583E08A838AE289834FB730
:10555000F894DE01139620E03EE051E2E32FF0E004
:1055600050935700E49120FF03C0E295EF703F5F36
:10557000EF708E2F90E0EA3010F0C79601C0C09611
:105580008D939D932F5F243149F74FBF8091E800A1
:10559000877F8093E8006AE270E0CE0101960E9466
:1055A0000D2714C0AE014F5F5F4F6091DA020E9479
:1055B0005626BC01892B09F445C09091E800977FDD
:1055C0009093E80089819A810E946B278091E8007E
:1055D0008B778093E80036C08038A1F58091E80091
:1055E000877F8093E8008091D1028093F1008091C1
:1055F000E8008E778093E8000E94012823C0811183
:1056000021C08091D8029091D90299270297D4F4B1
:105610008091E800877F8093E8008091D802809392
:10562000D1020E9401288091D102811106C080918F
:10563000E30087FD02C081E001C084E08093D502D1
:105640000E9453258091E80083FF0AC08091E80002
:10565000877F8093E8008091EB0080628093EB006D
:10566000AA960FB6F894DEBF0FBECDBFDF91CF91E3
:105670001F9108950895CF938091D5028823A1F0BA
:10568000C091E900CF709091EC00892F817090FD5E
:1056900080E8C82B1092E9008091E80083FD0E9409
:1056A000E429CF70C093E900CF9108950E945D2B4B
:1056B0006894B1110C94EC2B08950E94D12B88F0C2
:1056C0009F5798F0B92F9927B751B0F0E1F0660FC6
:1056D000771F881F991F1AF0BA95C9F714C0B13007
:1056E00091F00E94EB2BB1E008950C94EB2B672F07
:1056F000782F8827B85F39F0B93FCCF38695779536
:105700006795B395D9F73EF490958095709561951E
:105710007F4F8F4F9F4F0895E89409C097FB3EF449
:1057200090958095709561957F4F8F4F9F4F9923EE
:10573000A9F0F92F96E9BB279395F695879577956C
:105740006795B795F111F8CFFAF4BB0F11F460FF2C
:105750001BC06F5F7F4F8F4F9F4F16C0882311F084
:1057600096E911C0772321F09EE8872F762F05C098
:10577000662371F096E8862F70E060E02AF09A9533
:10578000660F771F881FDAF7880F9695879597F928
:10579000089557FD9058440F551F59F05F3F71F021
:1057A0004795880F97FB991F61F09F3F79F0879588
:1057B0000895121613061406551FF2CF4695F1DF11
:1057C00008C0161617061806991FF1CF86957105A1
:1057D000610508940895E894BB2766277727CB01D5
:1057E00097F908950E94052C0C94762C0E94682C41
:1057F00038F00E946F2C20F0952311F00C945F2C50
:105800000C94652C11240C94EC2B0E94C92B70F382
:10581000959FC1F3950F50E0551F629FF001729F55
:10582000BB27F00DB11D639FAA27F00DB11DAA1F64
:10583000649F6627B00DA11D661F829F2227B00DB1
:10584000A11D621F739FB00DA11D621F839FA00D3C
:10585000611D221F749F3327A00D611D231F849F8C
:10586000600D211D822F762F6A2F11249F575040E3
:105870009AF0F1F088234AF0EE0FFF1FBB1F661F5E
:10588000771F881F91505040A9F79E3F510580F027
:105890000C945F2C0C94EC2B5F3FE4F3983ED4F314
:1058A000869577956795B795F795E7959F5FC1F7CB
:1058B000FE2B880F911D9695879597F9089597F976
:1058C0009F6780E870E060E008959FEF80EC0895A6
:1058D00000240A94161617061806090608950024CF
:1058E0000A9412161306140605060895092E039449
:1058F000000C11F4882352F0BB0F40F4BF2B11F4BD
:1059000060FF04C06F5F7F4F8F4F9F4F0895AA1BAA
:10591000BB1B51E107C0AA1FBB1FA617B70710F09A
:10592000A61BB70B881F991F5A95A9F780959095CC
:10593000BC01CD01089597FB072E16F4009407D003
:1059400077FD09D00E94872C07FC05D03EF4909586
:1059500081959F4F0895709561957F4F0895EE0F43
:10596000FF1F0590F491E02D0994F999FECF92BDA7
:1059700081BDF89A992780B50895A6E1B0E044E08A
:1059800050E00C94EF2CA8E1B0E042E050E00C9421
:10599000EF2C262FF999FECF92BD81BDF89A019781
:1059A00000B4021639F01FBA20BD0FB6F894FA9A67
:1059B000F99A0FBE08950396272F0E94CA2C0E94C1
:1059C000C92C252F0E94CA2C242F0C94CA2C019676
:1059D000272F0E94CA2C0C94C92CDC01CB01FC019E
:1059E000F999FECF06C0F2BDE1BDF89A319600B438
:0E59F0000D9241505040B8F70895F894FFCF43
:1059FE00FF42022808140A321E5D24ED24CA2494A4
:105A0E002460240190919293959496973437333273
:105A1E003130C6F0F1F4F5F6F7404D36394212F555
:0E5A2E0011BF118611191132114B11641100B4
:00000001FF
